{
  "_format": "hh-sol-artifact-1",
  "contractName": "Report",
  "sourceName": "contracts/Report.sol",
  "abi": [
    {
      "inputs": [],
      "name": "LoginAsAdmin",
      "outputs": [
        {
          "internalType": "bool",
          "name": "",
          "type": "bool"
        }
      ],
      "stateMutability": "view",
      "type": "function"
    },
    {
      "inputs": [
        {
          "internalType": "string",
          "name": "_crops",
          "type": "string"
        },
        {
          "internalType": "string",
          "name": "_state",
          "type": "string"
        },
        {
          "internalType": "uint256",
          "name": "_price",
          "type": "uint256"
        },
        {
          "internalType": "uint256",
          "name": "_quantity",
          "type": "uint256"
        },
        {
          "internalType": "string",
          "name": "_terms",
          "type": "string"
        },
        {
          "internalType": "uint256",
          "name": "_payment",
          "type": "uint256"
        }
      ],
      "name": "ReportCrime",
      "outputs": [],
      "stateMutability": "nonpayable",
      "type": "function"
    },
    {
      "inputs": [],
      "name": "viewReports",
      "outputs": [
        {
          "components": [
            {
              "internalType": "uint256",
              "name": "timestamp",
              "type": "uint256"
            },
            {
              "internalType": "string",
              "name": "crops",
              "type": "string"
            },
            {
              "internalType": "string",
              "name": "state",
              "type": "string"
            },
            {
              "internalType": "uint256",
              "name": "price",
              "type": "uint256"
            },
            {
              "internalType": "uint256",
              "name": "quantity",
              "type": "uint256"
            },
            {
              "internalType": "string",
              "name": "terms",
              "type": "string"
            },
            {
              "internalType": "uint256",
              "name": "payment",
              "type": "uint256"
            }
          ],
          "internalType": "struct Report.report[]",
          "name": "",
          "type": "tuple[]"
        }
      ],
      "stateMutability": "view",
      "type": "function"
    }
  ],
  "bytecode": "0x60806040526040518060200160405280736ed1b934670a5f42e0ba1e19fbfe5b6d1e2edea773ffffffffffffffffffffffffffffffffffffffff1673ffffffffffffffffffffffffffffffffffffffff168152506001906001610063929190610075565b5034801561006f575f80fd5b5061010c565b82600281019282156100e0579160200282015b828111156100df578251825f6101000a81548173ffffffffffffffffffffffffffffffffffffffff021916908373ffffffffffffffffffffffffffffffffffffffff16021790555091602001919060010190610088565b5b5090506100ed91906100f1565b5090565b5b80821115610108575f815f9055506001016100f2565b5090565b61114a806101195f395ff3fe608060405234801561000f575f80fd5b5060043610610055575f3560e01c806312beb00f14610059578063446e35ba14610077578063467f2cd8146100935780638392c50f146100ca5780639973fb66146100e8575b5f80fd5b610061610118565b60405161006e91906109a5565b60405180910390f35b610091600480360381019061008c9190610b2c565b610355565b005b6100ad60048036038101906100a89190610c09565b6104e2565b6040516100c1989796959493929190610c9a565b60405180910390f35b6100d26106c6565b6040516100df9190610d45565b60405180910390f35b61010260048036038101906100fd9190610c09565b61075b565b60405161010f9190610d9d565b60405180910390f35b60605f805480602002602001604051908101604052809291908181526020015f905b8282101561034c578382905f5260205f209060080201604051806101000160405290815f820154815260200160018201805461017590610de3565b80601f01602080910402602001604051908101604052809291908181526020018280546101a190610de3565b80156101ec5780601f106101c3576101008083540402835291602001916101ec565b820191905f5260205f20905b8154815290600101906020018083116101cf57829003601f168201915b5050505050815260200160028201805461020590610de3565b80601f016020809104026020016040519081016040528092919081815260200182805461023190610de3565b801561027c5780601f106102535761010080835404028352916020019161027c565b820191905f5260205f20905b81548152906001019060200180831161025f57829003601f168201915b5050505050815260200160038201548152602001600482015481526020016005820180546102a990610de3565b80601f01602080910402602001604051908101604052809291908181526020018280546102d590610de3565b80156103205780601f106102f757610100808354040283529160200191610320565b820191905f5260205f20905b81548152906001019060200180831161030357829003601f168201915b50505050508152602001600682015481526020016007820154815250508152602001906001019061013a565b50505050905090565b5f73ffffffffffffffffffffffffffffffffffffffff163373ffffffffffffffffffffffffffffffffffffffff16036103c3576040517f08c379a00000000000000000000000000000000000000000000000000000000081526004016103ba90610e5d565b60405180910390fd5b5f6040518061010001604052804281526020018881526020018781526020018681526020018581526020018481526020018381526020015f357fffffffff00000000000000000000000000000000000000000000000000000000167bffffffffffffffffffffffffffffffffffffffffffffffffffffffff1916815250908060018154018082558091505060019003905f5260205f2090600802015f909190919091505f820151815f015560208201518160010190816104839190611018565b5060408201518160020190816104999190611018565b50606082015181600301556080820151816004015560a08201518160050190816104c39190611018565b5060c0820151816006015560e082015181600701555050505050505050565b5f81815481106104f0575f80fd5b905f5260205f2090600802015f91509050805f01549080600101805461051590610de3565b80601f016020809104026020016040519081016040528092919081815260200182805461054190610de3565b801561058c5780601f106105635761010080835404028352916020019161058c565b820191905f5260205f20905b81548152906001019060200180831161056f57829003601f168201915b5050505050908060020180546105a190610de3565b80601f01602080910402602001604051908101604052809291908181526020018280546105cd90610de3565b80156106185780601f106105ef57610100808354040283529160200191610618565b820191905f5260205f20905b8154815290600101906020018083116105fb57829003601f168201915b50505050509080600301549080600401549080600501805461063990610de3565b80601f016020809104026020016040519081016040528092919081815260200182805461066590610de3565b80156106b05780601f10610687576101008083540402835291602001916106b0565b820191905f5260205f20905b81548152906001019060200180831161069357829003601f168201915b5050505050908060060154908060070154905088565b5f805f90505b6002811015610753573373ffffffffffffffffffffffffffffffffffffffff1660018260028110610700576106ff6110e7565b5b015f9054906101000a900473ffffffffffffffffffffffffffffffffffffffff1673ffffffffffffffffffffffffffffffffffffffff1603610746576001915050610758565b80806001019150506106cc565b505f90505b90565b6001816002811061076a575f80fd5b015f915054906101000a900473ffffffffffffffffffffffffffffffffffffffff1681565b5f81519050919050565b5f82825260208201905092915050565b5f819050602082019050919050565b5f819050919050565b6107ca816107b8565b82525050565b5f81519050919050565b5f82825260208201905092915050565b8281835e5f83830152505050565b5f601f19601f8301169050919050565b5f610812826107d0565b61081c81856107da565b935061082c8185602086016107ea565b610835816107f8565b840191505092915050565b5f819050919050565b61085281610840565b82525050565b5f61010083015f83015161086e5f8601826107c1565b50602083015184820360208601526108868282610808565b915050604083015184820360408601526108a08282610808565b91505060608301516108b560608601826107c1565b5060808301516108c860808601826107c1565b5060a083015184820360a08601526108e08282610808565b91505060c08301516108f560c08601826107c1565b5060e083015161090860e0860182610849565b508091505092915050565b5f61091e8383610858565b905092915050565b5f602082019050919050565b5f61093c8261078f565b6109468185610799565b935083602082028501610958856107a9565b805f5b8581101561099357848403895281516109748582610913565b945061097f83610926565b925060208a0199505060018101905061095b565b50829750879550505050505092915050565b5f6020820190508181035f8301526109bd8184610932565b905092915050565b5f604051905090565b5f80fd5b5f80fd5b5f80fd5b5f80fd5b7f4e487b71000000000000000000000000000000000000000000000000000000005f52604160045260245ffd5b610a14826107f8565b810181811067ffffffffffffffff82111715610a3357610a326109de565b5b80604052505050565b5f610a456109c5565b9050610a518282610a0b565b919050565b5f67ffffffffffffffff821115610a7057610a6f6109de565b5b610a79826107f8565b9050602081019050919050565b828183375f83830152505050565b5f610aa6610aa184610a56565b610a3c565b905082815260208101848484011115610ac257610ac16109da565b5b610acd848285610a86565b509392505050565b5f82601f830112610ae957610ae86109d6565b5b8135610af9848260208601610a94565b91505092915050565b610b0b816107b8565b8114610b15575f80fd5b50565b5f81359050610b2681610b02565b92915050565b5f805f805f8060c08789031215610b4657610b456109ce565b5b5f87013567ffffffffffffffff811115610b6357610b626109d2565b5b610b6f89828a01610ad5565b965050602087013567ffffffffffffffff811115610b9057610b8f6109d2565b5b610b9c89828a01610ad5565b9550506040610bad89828a01610b18565b9450506060610bbe89828a01610b18565b935050608087013567ffffffffffffffff811115610bdf57610bde6109d2565b5b610beb89828a01610ad5565b92505060a0610bfc89828a01610b18565b9150509295509295509295565b5f60208284031215610c1e57610c1d6109ce565b5b5f610c2b84828501610b18565b91505092915050565b610c3d816107b8565b82525050565b5f82825260208201905092915050565b5f610c5d826107d0565b610c678185610c43565b9350610c778185602086016107ea565b610c80816107f8565b840191505092915050565b610c9481610840565b82525050565b5f61010082019050610cae5f83018b610c34565b8181036020830152610cc0818a610c53565b90508181036040830152610cd48189610c53565b9050610ce36060830188610c34565b610cf06080830187610c34565b81810360a0830152610d028186610c53565b9050610d1160c0830185610c34565b610d1e60e0830184610c8b565b9998505050505050505050565b5f8115159050919050565b610d3f81610d2b565b82525050565b5f602082019050610d585f830184610d36565b92915050565b5f73ffffffffffffffffffffffffffffffffffffffff82169050919050565b5f610d8782610d5e565b9050919050565b610d9781610d7d565b82525050565b5f602082019050610db05f830184610d8e565b92915050565b7f4e487b71000000000000000000000000000000000000000000000000000000005f52602260045260245ffd5b5f6002820490506001821680610dfa57607f821691505b602082108103610e0d57610e0c610db6565b5b50919050565b7f496e76616c6964204164647265737300000000000000000000000000000000005f82015250565b5f610e47600f83610c43565b9150610e5282610e13565b602082019050919050565b5f6020820190508181035f830152610e7481610e3b565b9050919050565b5f819050815f5260205f209050919050565b5f6020601f8301049050919050565b5f82821b905092915050565b5f60088302610ed77fffffffffffffffffffffffffffffffffffffffffffffffffffffffffffffffff82610e9c565b610ee18683610e9c565b95508019841693508086168417925050509392505050565b5f819050919050565b5f610f1c610f17610f12846107b8565b610ef9565b6107b8565b9050919050565b5f819050919050565b610f3583610f02565b610f49610f4182610f23565b848454610ea8565b825550505050565b5f90565b610f5d610f51565b610f68818484610f2c565b505050565b5b81811015610f8b57610f805f82610f55565b600181019050610f6e565b5050565b601f821115610fd057610fa181610e7b565b610faa84610e8d565b81016020851015610fb9578190505b610fcd610fc585610e8d565b830182610f6d565b50505b505050565b5f82821c905092915050565b5f610ff05f1984600802610fd5565b1980831691505092915050565b5f6110088383610fe1565b9150826002028217905092915050565b611021826107d0565b67ffffffffffffffff81111561103a576110396109de565b5b6110448254610de3565b61104f828285610f8f565b5f60209050601f831160018114611080575f841561106e578287015190505b6110788582610ffd565b8655506110df565b601f19841661108e86610e7b565b5f5b828110156110b557848901518255600182019150602085019450602081019050611090565b868310156110d257848901516110ce601f891682610fe1565b8355505b6001600288020188555050505b505050505050565b7f4e487b71000000000000000000000000000000000000000000000000000000005f52603260045260245ffdfea2646970667358221220f3badf433c4e6360e66895439d31648db6c354a3f13a037051102f553a1e2a6664736f6c634300081a0033",
  "linkReferences": {},
  "deployedLinkReferences": {}
}